:020000040000fa
:080000000001040000000000f3
:020000040000fa
:10020000cff9200000ff200000018800000000005e
:100210000a00070011000700000020000000e000b5
:100220000200320000000200000000009e020200f6
:10023000000000000040da000000fe004440a90079
:10024000000020000000e000030032000000200059
:10025000a00188004440a80000000600603e200085
:10026000010020001500370062004000e0804800d7
:10027000910188009001ba0062004000e0804800cf
:10028000910188009002ba0062004000e0804800be
:100290000002eb006028e10004003a000059eb0086
:1002a0008301e900fdff3e00040037006128e10002
:1002b000010032000082eb00050007009101880078
:1002c0001001ba000200e000e7ff3a00000005005c
:1002d000910188008002780062004000e0804800c0
:1002e0003559ba008301e900080032002559ba00e7
:1002f0008301e900050032000400e000f4ff320051
:1003000015d9ba008301e900f1ff3a0000000600a8
:020000040000fa
:0200000401f009
:04000000f7ff000006
:020000040000fa
:0200000401f009
:04000400ff7f00007a
:020000040000fa
:0200000401f009
:040008005ff900009c
:020000040000fa
:1000080046040000460400004604000046040000c0
:1000180046040000460400004604000046040000b0
:1000280046040000460400004604000046040000a0
:100038004604000046040000460400004604000090
:10004800460400004604000046040000c402000004
:100058004604000046040000460400004604000070
:100068004604000046040000460400004604000060
:100078004604000046040000460400004604000050
:100088004604000046040000460400004604000040
:100098004604000046040000460400004604000030
:1000a8004604000046040000460400004604000020
:1000b8004604000046040000460400004604000010
:1000c8004604000046040000460400004604000000
:1000d80046040000460400004604000046040000f0
:1000e80046040000460400004604000046040000e0
:0800f80046040000460400006c
:020000040000fa
:1001080046040000460400004604000046040000bf
:1001180046040000460400004604000046040000af
:10012800460400004604000046040000460400009f
:10013800460400004604000046040000460400008f
:10014800460400004604000046040000c402000003
:10015800460400004604000046040000460400006f
:10016800460400004604000046040000460400005f
:10017800460400004604000046040000460400004f
:10018800460400004604000046040000460400003f
:10019800460400004604000046040000460400002f
:1001a800460400004604000046040000460400001f
:1001b800460400004604000046040000460400000f
:1001c80046040000460400004604000046040000ff
:1001d80046040000460400004604000046040000ef
:1001e80046040000460400004604000046040000df
:0801f80046040000460400006b
:020000040000fa
:100310000000fa00b0092000a0108800c1202000d1
:100320009140780090cfb30000c060000ce2b700ad
:100330000c02a9008d40a8000fe2a800910920003e
:100340009140780080cfb30000c060000004a0009e
:1003500099e0b7000de2a8000f42a800f00f2000be
:10036000801088000080fa00000006000000fa00fb
:10037000210e80000000280000806000b1232000d2
:1003800001007000200e8800c801a900c821a90042
:10039000c841a800c881a900c8a1a900c8c1a90076
:1003a000c901a800c921a800c941a800ca01a90023
:1003b000ca21a900ca41a900b11c200091407800bf
:1003c00000cfb30000c060000024a000cbe1b70064
:1003d000c11c20009140780000ccb30000c0600038
:1003e000cce1b700ccc1bf00f043b200cce1b70014
:1003f000011c200091407800c0cfb30000c0600015
:10040000c0e1b700011c20009140780030cfb3005c
:1004100000c06000c0e1b700c0c1bf006f40600015
:1004200001c5b30001407000c0e1b700c1a1a9003f
:10043000c1e1a800310e80000000280000806000ab
:10044000f10f200001007000300e8800c7e1a90004
:1004500090e0a9000080fa00000006000000fa0009
:10046000a802a800a822a800a842a800a862a80084
:10047000a882a900a8a2a800a8c2a800a8e2a80073
:10048000a902a800a0c2bf007f40600001c6b3005f
:1004900001407000a0e2b700112a200091407800ce
:1004a000c0cfb30000c06000a1e2b700a1a2a900c4
:1004b000a042a800612a20009140780000cfb3003c
:1004c00000c060000024a000a6e2b700a682a90038
:1004d000412a20009140780000ccb30000c06000a9
:1004e000e040b300a4e2b700a4e2a900512a200032
:1004f0009140780000ceb30000c060000014a0005e
:10050000a5e2b7000000eb0010158800a1e2a800ea
:100510008d60a8000080fa00000006000000fa00cc
:10052000de02a900de22a900de82a900dea2a90067
:10053000dec2a8000080fa00000006000000fa00f9
:10054000f6ff0700c5ff070088ff0700e202a900c9
:10055000e222a900e282a900e2a2a900007b8000b9
:10056000f07a880000003700e0c2bf000044b2000b
:100570000004e00002003a00e2a2a800faff3700ff
:10058000e2a2a900f8ff3700809fbe00829fbe0054
:10059000849fbe00869fbe00889fbe003400f80086
:1005a00000c0b300a00188000000fa00d07c8000e9
:1005b0000000e800d07c8800d07c8000e10f500073
:1005c00079003a00e202a80000148000007c880054
:1005d000007c80006104b900c07a80006101b9002c
:1005e0000243b80003c0b9000702780000024200cd
:1005f0000990b90000024200840378004439dd000c
:100600004c30de0000007100ccb8de00407b88007a
:10061000b07c80000000e800b07c8800c07c8000d6
:100620000000e800c07c8800f17a8000207b800018
:10063000808f500004003d00f07a80006800400088
:10064000f07a880003003700307b8000f07a880061
:10065000e222a800f17a8000407b800000805000f8
:10066000d07b8800d07b80006104b900407c800092
:100670006101b9000243b80003c0b9000702780065
:10068000000242000990b900000242008403780091
:100690004439dd004c30de0000007100ccb8de00d3
:1006a00080027800e07b80006104b900307c80002b
:1006b0006101b9000243b80003c0b9000702780025
:1006c000000242000990b900000242008403780051
:1006d0004439dd004c30de0000007100ccb8de0093
:1006e00080804200b07b800000804000a07b8800ba
:1006f000d07b8000e07b8800a07b8000b07b8800fe
:10070000a07b8000607b8800607b80000000e000b0
:1007100002003d000000eb00607b8800607b8000f1
:100720006101b900c02320000012b8006010b900b8
:100730000503780000034300c02320000098b9009f
:1007400000034300860278004429dd004c20de00cf
:1007500000007100cca8de0000004000d00e880030
:10076000e202a900a17c800030382000808f500078
:100770000a003c00a07c8000627b8000800040007a
:10078000008520000080400002087800a07c8000e6
:100790000000e800a07c880001003700e282a80089
:1007a0000000eb00d07c88008560a9000080fa0082
:1007b0003400f9004f04be004f03be004f02be00dc
:0c07c0004f01be004f00be0000400600cc
:020000040000fa
:1007cc00580f000044000000020000000050ff0021
:1007dc007fd70f0000000000003303000008d70093
:1007ec000f000000000000000000000000000000ee
:1007fc0000000000000000000000000000000000ed
:10080c00000000000000000000aff700b20ace00ac
:10081c004bbdde000040ff007f64000000000000c4
:10082c000000000000000000500800000807000055
:08083c000000000000000000b4
:020000040000fa
:100844000400fa0010079800070037000000eb00ce
:10085400000f7800010037001e0fe8005009200047
:100864009e0f1000fcff36001e0090000000e900ff
:10087400100798001e009000e10f4000f3ff3a00bb
:080884000080fa0000000600ec
:020000040000fa
:04088c000000fe006a
:00000001FF
